:100000005EEF01F00000000000EF00F000000000D3
:0A0010000000000000000000F3D71C
:10001C00C7B409D01F0EC514016E0150000A03E1CC
:0A002C00010E006E01D0006A120000
:04003600C58412006B
:10003A009E9637C0C9FFC7A401D0FDD79EB601D08E
:10004A00FDD7C5BC02D0006A03D0C584020E006E7B
:02005A00120092
:10005C00376A386A3850120802E137508E0807E3C5
:10006C00D7DF005201E003D0374A382AF3D7120EFB
:10007C00385C02E18F0E375C03E37B0E006E05D01B
:0C008C00C580C5A001D0FDD7006A12009D
:08009800BE6ABD98BD9A12007A
:1000A000DDDFD00E376EC9DF33C037F0C6DF34C0B6
:0800B00037F0C3DFC0DF1200CE
:1000B8000B6A0A6A096A00500402F4CF09F0F3CF08
:1000C80008F001500502F4CF0BF0F3CF0AF000500E
:1000D8000502F3500926F4500A22E86A0B2201505F
:1000E8000402F3500926F4500A22E86A0B2208C0D9
:1000F80000F009C001F00AC002F00BC003F01200C2
:08010800676A6698669A12000E
:10011000949894968B988B9694889486C79EC79C47
:06012000380EC66E12004D
:100126009E96C5869EB601D0FDD7C9CF01F0335045
:10013600000A02E1C58A01D0C59A9E96C5889EB678
:0A01460001D0FDD701C000F0120047
:0A015000C582C5A201D0FDD7120040
:10015A00BB50010F006E016A000E012231C004F08B
:10016A00000E056EA4DF060E026E00C004F001C088
:10017A0005F0025005E005320432059EFF0FFAD75A
:10018A00040E016E04C000F0015004E00036009035
:10019A00FF0FFBD7300E0014036E04C000F005C039
:1001AA0001F001320032019E01320032019E00C08C
:0C01BA00BEFF0F0EBD160350BD12120058
:1001C6000900F5CFE6FF0006FBE10106F9E11200A2
:1001D6000F01386B396B3A6B799E060EC16EFF0EB6
:1001E600806EFF0E926E8B6A946ABA80BA82630E34
:1001F600BB6E4FDFBA80BA82630EBB6E82DF500ED3
:10020600C86E83DF070E336E100E346E46DF1200A3
:10021600BB50010F006E016A000E012231C004F0CE
:10022600000E056E46DF060E026E00C004F001C029
:1002360005F0025005E005320432059EFF0FFAD79D
:10024600040E016E04C000F0015004E00036009078
:10025600FF0FFBD7300E0014036E04C000F005C07C
:1002660001F001320032019E01320032019E00C0CF
:0C02760067FF0F0E6616035066121200A0
:10028200ECDED00E376ED8DE31C037F0D5DE5FDF60
:10029200D10E376ED1DE336A45DF00C032F0CADEDE
:0602A20032C000F0120062
:0A02A8009492BA840C0E6612120044
:0A02B2009494BA840C0EBD121200E1
:1002BC00156A166A0C0E176E186A150E196E1A6AE4
:1002CC00200E1B6E1C6A2B0E1D6E1E6A350E1F6EC9
:1002DC00206A7BDF276A286AE6DFE0DF27C031F07F
:1002EC0036DF28C031F091DF316AC5DF00C025F060
:1002FC00000E266E010E316EBEDF00C021F0000E26
:10030C00226E020E316EB7DF00C023F0000E246E99
:10031C00030E316EB0DF00C029F0000E2A6E040E01
:10032C00316EA9DF00C02DF0000E2E6E050E316E61
:10033C00A2DF00C02FF0000E306E060E316E9BDF78
:10034C0000C02BF0000E2C6E80A011D0020E0B6E94
:10035C00A00E0C6E920E0D6E0D2EFED70C2EFCD731
:10036C000B2EFAD70000272A27C031F0F0DE80A22E
:10037C0011D0020E0B6EA00E0C6E920E0D6E0D2E89
:10038C00FED70C2EFCD70B2EFAD70000270627C061
:10039C0031F0DDDE80A41FD0020E0B6EA00E0C6EB1
:1003AC00920E0D6E0D2EFED70C2EFCD70B2EFAD7FF
:1003BC000000154A162A15C000F016C001F00036D0
:1003CC0000900136170E0024E96E000E0120EA6E33
:1003DC00EECF31F01ADF80A621D0020E0B6EA00EEC
:1003EC000C6E920E0D6E0D2EFED70C2EFCD70B2E16
:1003FC00FAD70000010E155E000E165A15C000F05B
:10040C0016C001F0003600900136170E0024E96E7C
:10041C00000E0120EA6EEECF31F0F7DE680E0C6EA6
:10042C00E40E0D6E0D2EFED70C2EFCD700005CD703
:02043C00FFD7E8
:020000040030CA
:0D000100231F3CFFBF81FF03C003E003404D
:00000001FF
